:0400000017EF05F001
:08000800046ED8CF05F0E0CF33
:1000100006F00001E9CF0CF0EACF07F0E1CF08F0DD
:10002000E2CF09F0D9CF0AF0DACF0BF0F3CF12F01C
:10003000F4CF13F0FACF14F0F5CF15F0F6CF16F099
:10004000F7CF17F000C00EF001C00FF002C010F0A3
:1000500003C011F09DAA30EF00F09EBA65EF01F0E9
:100060000EC000F00FC001F010C002F011C003F08C
:100070000CC0E9FF07C0EAFF078E08C0E1FF09C016
:10008000E2FF0AC0D9FF0BC0DAFF12C0F3FF13C0B2
:10009000F4FF14C0FAFF15C0F5FF16C0F6FF17C035
:1000A000F7FF045006C0E0FF05C0D8FF1000F76A54
:1000B000BE0FF66E000EF7220900F55012004F4BEE
:1000C0000000F76AD20FF66E000EF7220900F55015
:1000D00012002B43574D4F44453A3100F76AEC0F5D
:1000E000F66E000EF7220900F55012004552524FED
:1000F0005200F76A020FF66E010EF7220900F55062
:1001000012004C696E6B6564000041540D0A0000DA
:100110004D6F64756C652045726973696C64690024
:100120004D6F64756C2042756C756E616D616469AC
:100130002C2054656B7261722044656E656E69791E
:100140006F72000041542B43574D4F44453F0D0AF9
:1001500000004D4F4445204179617220446F677221
:10016000750041542B43574D4F44453D310D0A0016
:1001700041542B5253540D0A00004D4F4420446506
:10018000676973746972696C69722E0041542B43FC
:10019000574A41503D25730D0A004D6F64656D65EA
:1001A000204261676C616E746920796170696C646A
:1001B00069004261676C616E74692042656B6C65B1
:1001C0006E69796F722E000041542B434946535299
:1001D0000D0A0000416C696E616E204950203D207F
:1001E000000054656B7261722044656E652E0000DC
:1001F00041542B43495053544152543D225443508F
:10020000222C227777772E70696370726F6A652E61
:100210006F7267222C38300D0A0053657276657252
:1002200020696C65206261676C616E7469206B7512
:1002300072756C6475004261676C616E746920420E
:10024000656B6C656E69796F722E000041542B43AB
:10025000495053454E443D3130300D0A000047456A
:1002600054202F20485454502F312E310D0A0000B5
:10027000486F73743A207777772E70696370726F66
:100280006A652E6F72670D0A0000416363657074C2
:100290003A202A2F2A0D0A00436F6E74656E742D62
:1002A000547970653A20746578742F68746D6C0D9C
:1002B0000A00436F6E74656E742D4C656E677468CA
:1002C0003A20300D0A0D0A0D0A00EA6A350EE96E71
:1002D000E9069EAAFED7AECFECFF0D0EEF5CF9E16A
:1002E000EC6A9E9A30EF00F00900F5520DE0F6CF6F
:1002F00036F2F7CF37F2F5509EA8FED7AD6E36C274
:10030000F6FF37C2F7FFF0D71200020EEA6E370E83
:10031000E96EEF500DE0020E016E006A002EFED76E
:10032000012EFBD7970E006E002EFED7EF2EF3D7CF
:10033000120037C203F0020136C2E9FF37C2EAFFFA
:10034000EF5239E037C23BF236C23AF239C23DF2DF
:1003500038C23CF23DC203F03CC2E9FF3DC2EAFFB5
:10036000EF5216E03AC2E9FF3BC2EAFFEFCF3EF29E
:100370003DC203F03CC2E9FF3DC2EAFFEF503E5DE3
:1003800007E13A2BD8B43B2B3C2BD8B43D2BE2D71A
:100390003DC203F03CC2E9FF3DC2EAFFEF5205E176
:1003A00036C201F037C202F009D0362BD8B4372B51
:1003B0000001BFD70201000E016E026E00011200A3
:1003C0000201376B366B375101080FE303E13651F9
:1003D000F3080BE3350E3625E96E000E3721EA6E81
:1003E000EF6A362BD8B4372BEED72A6B296B000176
:1003F0001200949A8B9A080E016E00D00000018EB4
:1004000019D0019E02013851026E02320001D8B0AB
:100410008B8AD8A08B9A018C0DD0019C012E01D023
:1004200002D00201F2D702500201386F00D0000062
:100430008B8A000101BEE5D701BCEFD7120009008D
:10044000F5520CE0F6CF36F2F7CF37F2F5CF38F2AF
:10045000D0DF36C2F6FF37C2F7FFF1D7120009002E
:10046000F6CF37F2F7CF38F2F5509EA8FED7AD6E33
:1004700037C2F6FF38C2F7FF0201362F01D002D093
:100480000001EDD7000156EF03F0EF5210E0EACF84
:1004900037F2E9CF36F2EF509EA8FED7AD6E37C2E5
:1004A000EAFF36C2E9FFE92AD8B4EA2AEED71200F9
:1004B000FB0E936E8A8402012B51F50FD8B09CD2AB
:1004C0000B0F0001FFEF04F00A0EF66E010EF76E3F
:1004D0000BDF0D0E9EA8FED7AD6E0A0E9EA8FED7AE
:1004E000AD6E040E0201366FFA0E376F00010DDF9C
:1004F0000201362FF9D7010E2B6F7ED2020EEA6E63
:100500002C0EE96E000ED3DD0A000900F550EE6EE8
:100510000009FBE10201376B350E366F020E396FB1
:100520002C0E386F000105DF02C037F201C036F231
:100530000201365302E1375315E0000141DF100E8E
:10054000F66E010EF76E7BDF0D0E0201386F0001B3
:1005500050DF0A0E0201386F00014BDF020E02016C
:100560002B6F13D000012CDF200EF66E010EF76EFC
:1005700066DF0D0E0201386F00013BDF0A0E02013B
:10058000386F000136DF02012B6B36D2440EF66E57
:10059000010EF76EA9DE0D0E9EA8FED7AD6E0A0EF7
:1005A0009EA8FED7AD6E040E0201366FFA0E376FAD
:1005B0000001ABDE0201362FF9D7030E2B6F1CD2E0
:1005C000020EEA6E2C0EE96E000E7BDD0A000900B9
:1005D000F550EE6E0009FBE10201376B350E366F08
:1005E000020E396F2C0E386F0001A3DE02C037F205
:1005F00001C036F20201365302E1375315E0000123
:10060000DFDE520EF66E010EF76E19DF0D0E0201DF
:10061000386F0001EEDE0A0E0201386F0001E9DEDC
:10062000040E02012B6F38D0620EF66E010EF76ECB
:1006300000015ADE0D0E9EA8FED7AD6E0A0E9EA8D2
:10064000FED7AD6E700EF66E010EF76E4DDE0D0E1E
:100650009EA8FED7AD6E0A0E9EA8FED7AD6E040E04
:100660000201366FFA0E376F00014FDE0201362F9E
:10067000F9D70001A5DE7A0EF66E010EF76EDFDE09
:100680000D0E0201386F0001B4DE0A0E0201386F50
:100690000001AFDE02012B6BAFD18C0EF66E010EA6
:1006A000F76E090E0201366F0001D9D6EA6A1B0EF9
:1006B000E96EEBDE0D0E9EA8FED7AD6E0A0E9EA86B
:1006C000FED7AD6E040E0201366FFA0E376F0001D1
:1006D0001CDE0201362FF9D7050E2B6F8DD1020ECD
:1006E000EA6E2C0EE96E000EE2DC0A000900F550FD
:1006F000EE6E0009FBE10201376B350E366F020E1C
:10070000396F2C0E386F000114DE02C037F201C0C1
:1007100036F20201365302E1375315E0000150DE94
:100720009A0EF66E010EF76E8ADE0D0E0201386F1C
:1007300000015FDE0A0E0201386F00015ADE060E6C
:1007400002012B6F1AD0040E366FFA0E376F0001BC
:10075000DCDD0201362FF9D7B20EF66E010EF76E10
:1007600000016DDE0D0E0201386F000142DE0A0E3F
:100770000201386F00013DDE02013ED1C80EF66E67
:10078000010EF76EB1DD0D0E9EA8FED7AD6E0A0EFE
:100790009EA8FED7AD6E040E0201366FFA0E376FBB
:1007A0000001B3DD0201362FF9D7070E2B6F24D1DC
:1007B000020EEA6E2C0EE96E000E90DC0A000900B3
:1007C000F550EE6E0009FBE10201376B350E366F16
:1007D000020E396F2C0E386F0001ABDD02C037F20C
:1007E00001C036F20201365323E1375321E1D40E22
:1007F000F66E010EF76E000122DE0D0E0201386F5B
:100800000001F7DD0A0E0201386F0001F2DDEA6A2D
:10081000400EE96E3ADE0D0E9EA8FED7AD6E0A0EB2
:100820009EA8FED7AD6ECCDD080E02012B6F1DD049
:10083000040E366FFA0E376F000167DD0201362FA6
:10084000F9D7E20EF66E010EF76E0001F8DD0D0E1F
:100850000201386F0001CDDD0A0E0201386F000180
:10086000C8DDAEDD060E02012B6FC6D0F00EF66EAF
:10087000010EF76E39DD0D0E9EA8FED7AD6E0A0E85
:100880009EA8FED7AD6E040E0201366FFA0E376FCA
:1008900000013BDD0201362FF9D7090E2B6FACD0DA
:1008A000020EEA6E2C0EE96E000E23DC0A0009002F
:1008B000F550EE6E0009FBE10201376B350E366F25
:1008C000020E396F2C0E386F000133DD02C037F293
:1008D00001C036F20201365302E1375315E0000140
:1008E0006FDD1A0EF66E020EF76EA9DD0D0E020117
:1008F000386F00017EDD0A0E0201386F000179DDDC
:100900000A0E02012B6F1AD0040E366FFA0E376FE3
:100910000001FBDC0201362FF9D7360EF66E020E0F
:10092000F76E00018CDD0D0E0201386F000161DDF4
:100930000A0E0201386F00015CDD02015DD04C0E31
:10094000F66E020EF76ED0DC0D0E9EA8FED7AD6ED1
:100950000A0E9EA8FED7AD6E040E0201366FFA0E87
:10096000376F0001D2DC0201362FF9D75E0EF66E2A
:10097000020EF76E0001B8DC0D0E9EA8FED7AD6E1C
:100980000A0E9EA8FED7AD6E700EF66E020EF76EC2
:10099000ABDC0D0E9EA8FED7AD6E0A0E9EA8FED74C
:1009A000AD6E8A0EF66E020EF76E9EDC0D0E9EA8E0
:1009B000FED7AD6E0A0E9EA8FED7AD6E980EF66EEF
:1009C000020EF76E91DC0D0E9EA8FED7AD6E0A0EDC
:1009D0009EA8FED7AD6EB20EF66E020EF76E84DCE8
:1009E0000D0E9EA8FED7AD6E0A0E9EA8FED7AD6E68
:1009F000FFD7020101D00201000173EF05F0E824E6
:100A0000F76AF736190FF66E0A0EF7220A00F5504C
:100A1000FA6E0800F550F96EC804FC048C05C00598
:100A20009A06DE067C07B0076C08A0083E09F86A43
:100A3000D09E078EEA6AE96AB886100EAF6E000E85
:100A4000B06EA60EAC6E900EAB6E00000000949AD5
:100A50008B8A02012A6B296B2B6BC150C00B0F09CB
:100A6000C16E070EB46E196A1A6A220E1B6E4D0E05
:100A70001C6E610E1D6E6D0E1E6E690E1F6E440E95
:100A8000206E720E216E6F0E226E690E236E640E42
:100A9000246E220E256E2C0E266E220E276E730EED
:100AA000286E610E296E6B0E2A6E610E2B6E720E11
:100AB0002C6E790E2D6E610E2E6E6C0E2F6E690EE1
:100AC000306E350E316E340E326E220E336E346A55
:100AD000B16A9D8AC00EF212700ED36EC00E9B6E6C
:0A0AE000D3500001E5D4FED7030057
:020000040030CA
:0E00000000C1180E008181000FC00FE00F40FC
:00000001FF
;PIC18F4520
;CRC=AA19  CREATED="26-Kas-14 22:50"
